{"abi":[{"inputs":[],"stateMutability":"nonpayable","type":"constructor","name":"constructor"},{"inputs":[],"name":"Candidate_count","outputs":[{"internalType":"uint256","name":"","type":"uint256"}],"stateMutability":"view","type":"function"},{"inputs":[{"internalType":"uint256","name":"","type":"uint256"}],"name":"Candidates","outputs":[{"internalType":"uint256","name":"id","type":"uint256"},{"internalType":"string","name":"name","type":"string"},{"internalType":"string","name":"party","type":"string"},{"internalType":"uint256","name":"vote_count","type":"uint256"}],"stateMutability":"view","type":"function"},{"inputs":[{"internalType":"uint256","name":"_candidateId","type":"uint256"}],"name":"Vote","outputs":[],"stateMutability":"nonpayable","type":"function"},{"inputs":[],"name":"viewvotes","outputs":[{"internalType":"uint256[]","name":"","type":"uint256[]"}],"stateMutability":"view","type":"function"},{"inputs":[{"internalType":"address","name":"","type":"address"}],"name":"voters","outputs":[{"internalType":"bool","name":"","type":"bool"}],"stateMutability":"view","type":"function"}],"bytecode":"608060405234801561001057600080fd5b5061007e6040518060400160405280601081526020016f11195d9859185cc81059d9d85c9dd85b60821b8152506040518060400160405280601681526020017f426861726174697961204a616e6174612050617274790000000000000000000081525061027f60201b60201c565b6100e86040518060400160405280600d81526020016c14185b1b185d8814185b991a5d609a1b8152506040518060400160405280601881526020017f496e6469616e204e6174696f6e616c20436f6e6772657373000000000000000081525061027f60201b60201c565b6101536040518060400160405280600e81526020016d486172697368204b687572616e6160901b8152506040518060400160405280601a81526020017f4e6174696f6e616c69737420436f6e677265737320506172747900000000000081525061027f60201b60201c565b6101bf6040518060400160405280600f81526020016e14d85c9a5d1848111a185b1a5dd85b608a1b8152506040518060400160405280601481526020017f526173687472697961204a616e6174612044616c00000000000000000000000081525061027f60201b60201c565b6102256040518060400160405280600981526020016812985a4811dbde585b60ba1b8152506040518060400160405280601381526020017f426168756a616e2053616d616a2050617274790000000000000000000000000081525061027f60201b60201c565b61027a604051806040016040528060048152602001634e4f544160e01b815250604051806040016040528060118152602001704e6f6e65204f66205468652041626f766560781b81525061027f60201b60201c565b61040f565b6002805490600061028f836103ab565b90915550506040805160808101825260025480825260208083018681528385018690526000606085018190529283526001808352949092208351815591518051939492936102e4938501929190910190610312565b5060408201518051610300916002840191602090910190610312565b50606082015181600301559050505050565b82805461031e906103d4565b90600052602060002090601f0160209004810192826103405760008555610386565b82601f1061035957805160ff1916838001178555610386565b82800160010185558215610386579182015b8281111561038657825182559160200191906001019061036b565b50610392929150610396565b5090565b5b808211156103925760008155600101610397565b60006000198214156103cd57634e487b7160e01b600052601160045260246000fd5b5060010190565b600181811c908216806103e857607f821691505b6020821081141561040957634e487b7160e01b600052602260045260246000fd5b50919050565b6105118061041e6000396000f3fe608060405234801561001057600080fd5b50600436106100575760003560e01c8063290e92121461005c5780634c7265541461008857806391b94a7e1461009f578063a3ec138d146100b4578063dcd6a5cd146100e7575b600080fd5b61006f61006a366004610330565b6100fc565b60405161007f9493929190610396565b60405180910390f35b61009160025481565b60405190815260200161007f565b6100a7610234565b60405161007f91906103d3565b6100d76100c2366004610417565b60006020819052908152604090205460ff1681565b604051901515815260200161007f565b6100fa6100f5366004610330565b6102bb565b005b60016020819052600091825260409091208054918101805461011d90610447565b80601f016020809104026020016040519081016040528092919081815260200182805461014990610447565b80156101965780601f1061016b57610100808354040283529160200191610196565b820191906000526020600020905b81548152906001019060200180831161017957829003601f168201915b5050505050908060020180546101ab90610447565b80601f01602080910402602001604051908101604052809291908181526020018280546101d790610447565b80156102245780601f106101f957610100808354040283529160200191610224565b820191906000526020600020905b81548152906001019060200180831161020757829003601f168201915b5050505050908060030154905084565b60408051600680825260e08201909252606091600091906020820160c08036833701905050905060005b600581116102b557600160006102748383610492565b815260200190815260200160002060030154828281518110610298576102986104aa565b6020908102919091010152806102ad816104c0565b91505061025e565b50919050565b3360009081526020819052604090205460ff16156102d857600080fd5b6000811180156102ea57506002548111155b6102f357600080fd5b33600090815260208181526040808320805460ff191660019081179091558484529091528120600301805491610328836104c0565b919050555050565b60006020828403121561034257600080fd5b5035919050565b6000815180845260005b8181101561036f57602081850181015186830182015201610353565b81811115610381576000602083870101525b50601f01601f19169290920160200192915050565b8481526080602082015260006103af6080830186610349565b82810360408401526103c18186610349565b91505082606083015295945050505050565b6020808252825182820181905260009190848201906040850190845b8181101561040b578351835292840192918401916001016103ef565b50909695505050505050565b60006020828403121561042957600080fd5b81356001600160a01b038116811461044057600080fd5b9392505050565b600181811c9082168061045b57607f821691505b602082108114156102b557634e487b7160e01b600052602260045260246000fd5b634e487b7160e01b600052601160045260246000fd5b600082198211156104a5576104a561047c565b500190565b634e487b7160e01b600052603260045260246000fd5b60006000198214156104d4576104d461047c565b506001019056fea2646970667358221220b553a1a283bd1c9549bf16e48f65c367003c98f27a1c579e9be756001b08ad0464736f6c634300080b0033","bytecodeSha1":"1042b357b2cb6e478b2ee5cf108ce0e1fc3fb567","compiler":{"evm_version":"istanbul","optimizer":{"enabled":true,"runs":200},"version":"0.8.11+commit.d7f03943"},"contractName":"Election","language":"Solidity","natspec":{"kind":"dev","methods":{},"version":1},"opcodes":"PUSH1 0x80 PUSH1 0x40 MSTORE CALLVALUE DUP1 ISZERO PUSH2 0x10 JUMPI PUSH1 0x0 DUP1 REVERT JUMPDEST POP PUSH1 0x4 CALLDATASIZE LT PUSH2 0x57 JUMPI PUSH1 0x0 CALLDATALOAD PUSH1 0xE0 SHR DUP1 PUSH4 0x290E9212 EQ PUSH2 0x5C JUMPI DUP1 PUSH4 0x4C726554 EQ PUSH2 0x88 JUMPI DUP1 PUSH4 0x91B94A7E EQ PUSH2 0x9F JUMPI DUP1 PUSH4 0xA3EC138D EQ PUSH2 0xB4 JUMPI DUP1 PUSH4 0xDCD6A5CD EQ PUSH2 0xE7 JUMPI JUMPDEST PUSH1 0x0 DUP1 REVERT JUMPDEST PUSH2 0x6F PUSH2 0x6A CALLDATASIZE PUSH1 0x4 PUSH2 0x330 JUMP JUMPDEST PUSH2 0xFC JUMP JUMPDEST PUSH1 0x40 MLOAD PUSH2 0x7F SWAP5 SWAP4 SWAP3 SWAP2 SWAP1 PUSH2 0x396 JUMP JUMPDEST PUSH1 0x40 MLOAD DUP1 SWAP2 SUB SWAP1 RETURN JUMPDEST PUSH2 0x91 PUSH1 0x2 SLOAD DUP2 JUMP JUMPDEST PUSH1 0x40 MLOAD SWAP1 DUP2 MSTORE PUSH1 0x20 ADD PUSH2 0x7F JUMP JUMPDEST PUSH2 0xA7 PUSH2 0x234 JUMP JUMPDEST PUSH1 0x40 MLOAD PUSH2 0x7F SWAP2 SWAP1 PUSH2 0x3D3 JUMP JUMPDEST PUSH2 0xD7 PUSH2 0xC2 CALLDATASIZE PUSH1 0x4 PUSH2 0x417 JUMP JUMPDEST PUSH1 0x0 PUSH1 0x20 DUP2 SWAP1 MSTORE SWAP1 DUP2 MSTORE PUSH1 0x40 SWAP1 KECCAK256 SLOAD PUSH1 0xFF AND DUP2 JUMP JUMPDEST PUSH1 0x40 MLOAD SWAP1 ISZERO ISZERO DUP2 MSTORE PUSH1 0x20 ADD PUSH2 0x7F JUMP JUMPDEST PUSH2 0xFA PUSH2 0xF5 CALLDATASIZE PUSH1 0x4 PUSH2 0x330 JUMP JUMPDEST PUSH2 0x2BB JUMP JUMPDEST STOP JUMPDEST PUSH1 0x1 PUSH1 0x20 DUP2 SWAP1 MSTORE PUSH1 0x0 SWAP2 DUP3 MSTORE PUSH1 0x40 SWAP1 SWAP2 KECCAK256 DUP1 SLOAD SWAP2 DUP2 ADD DUP1 SLOAD PUSH2 0x11D SWAP1 PUSH2 0x447 JUMP JUMPDEST DUP1 PUSH1 0x1F ADD PUSH1 0x20 DUP1 SWAP2 DIV MUL PUSH1 0x20 ADD PUSH1 0x40 MLOAD SWAP1 DUP2 ADD PUSH1 0x40 MSTORE DUP1 SWAP3 SWAP2 SWAP1 DUP2 DUP2 MSTORE PUSH1 0x20 ADD DUP3 DUP1 SLOAD PUSH2 0x149 SWAP1 PUSH2 0x447 JUMP JUMPDEST DUP1 ISZERO PUSH2 0x196 JUMPI DUP1 PUSH1 0x1F LT PUSH2 0x16B JUMPI PUSH2 0x100 DUP1 DUP4 SLOAD DIV MUL DUP4 MSTORE SWAP2 PUSH1 0x20 ADD SWAP2 PUSH2 0x196 JUMP JUMPDEST DUP3 ADD SWAP2 SWAP1 PUSH1 0x0 MSTORE PUSH1 0x20 PUSH1 0x0 KECCAK256 SWAP1 JUMPDEST DUP2 SLOAD DUP2 MSTORE SWAP1 PUSH1 0x1 ADD SWAP1 PUSH1 0x20 ADD DUP1 DUP4 GT PUSH2 0x179 JUMPI DUP3 SWAP1 SUB PUSH1 0x1F AND DUP3 ADD SWAP2 JUMPDEST POP POP POP POP POP SWAP1 DUP1 PUSH1 0x2 ADD DUP1 SLOAD PUSH2 0x1AB SWAP1 PUSH2 0x447 JUMP JUMPDEST DUP1 PUSH1 0x1F ADD PUSH1 0x20 DUP1 SWAP2 DIV MUL PUSH1 0x20 ADD PUSH1 0x40 MLOAD SWAP1 DUP2 ADD PUSH1 0x40 MSTORE DUP1 SWAP3 SWAP2 SWAP1 DUP2 DUP2 MSTORE PUSH1 0x20 ADD DUP3 DUP1 SLOAD PUSH2 0x1D7 SWAP1 PUSH2 0x447 JUMP JUMPDEST DUP1 ISZERO PUSH2 0x224 JUMPI DUP1 PUSH1 0x1F LT PUSH2 0x1F9 JUMPI PUSH2 0x100 DUP1 DUP4 SLOAD DIV MUL DUP4 MSTORE SWAP2 PUSH1 0x20 ADD SWAP2 PUSH2 0x224 JUMP JUMPDEST DUP3 ADD SWAP2 SWAP1 PUSH1 0x0 MSTORE PUSH1 0x20 PUSH1 0x0 KECCAK256 SWAP1 JUMPDEST DUP2 SLOAD DUP2 MSTORE SWAP1 PUSH1 0x1 ADD SWAP1 PUSH1 0x20 ADD DUP1 DUP4 GT PUSH2 0x207 JUMPI DUP3 SWAP1 SUB PUSH1 0x1F AND DUP3 ADD SWAP2 JUMPDEST POP POP POP POP POP SWAP1 DUP1 PUSH1 0x3 ADD SLOAD SWAP1 POP DUP5 JUMP JUMPDEST PUSH1 0x40 DUP1 MLOAD PUSH1 0x6 DUP1 DUP3 MSTORE PUSH1 0xE0 DUP3 ADD SWAP1 SWAP3 MSTORE PUSH1 0x60 SWAP2 PUSH1 0x0 SWAP2 SWAP1 PUSH1 0x20 DUP3 ADD PUSH1 0xC0 DUP1 CALLDATASIZE DUP4 CALLDATACOPY ADD SWAP1 POP POP SWAP1 POP PUSH1 0x0 JUMPDEST PUSH1 0x5 DUP2 GT PUSH2 0x2B5 JUMPI PUSH1 0x1 PUSH1 0x0 PUSH2 0x274 DUP4 DUP4 PUSH2 0x492 JUMP JUMPDEST DUP2 MSTORE PUSH1 0x20 ADD SWAP1 DUP2 MSTORE PUSH1 0x20 ADD PUSH1 0x0 KECCAK256 PUSH1 0x3 ADD SLOAD DUP3 DUP3 DUP2 MLOAD DUP2 LT PUSH2 0x298 JUMPI PUSH2 0x298 PUSH2 0x4AA JUMP JUMPDEST PUSH1 0x20 SWAP1 DUP2 MUL SWAP2 SWAP1 SWAP2 ADD ADD MSTORE DUP1 PUSH2 0x2AD DUP2 PUSH2 0x4C0 JUMP JUMPDEST SWAP2 POP POP PUSH2 0x25E JUMP JUMPDEST POP SWAP2 SWAP1 POP JUMP JUMPDEST CALLER PUSH1 0x0 SWAP1 DUP2 MSTORE PUSH1 0x20 DUP2 SWAP1 MSTORE PUSH1 0x40 SWAP1 KECCAK256 SLOAD PUSH1 0xFF AND ISZERO PUSH2 0x2D8 JUMPI PUSH1 0x0 DUP1 REVERT JUMPDEST PUSH1 0x0 DUP2 GT DUP1 ISZERO PUSH2 0x2EA JUMPI POP PUSH1 0x2 SLOAD DUP2 GT ISZERO JUMPDEST PUSH2 0x2F3 JUMPI PUSH1 0x0 DUP1 REVERT JUMPDEST CALLER PUSH1 0x0 SWAP1 DUP2 MSTORE PUSH1 0x20 DUP2 DUP2 MSTORE PUSH1 0x40 DUP1 DUP4 KECCAK256 DUP1 SLOAD PUSH1 0xFF NOT AND PUSH1 0x1 SWAP1 DUP2 OR SWAP1 SWAP2 SSTORE DUP5 DUP5 MSTORE SWAP1 SWAP2 MSTORE DUP2 KECCAK256 PUSH1 0x3 ADD DUP1 SLOAD SWAP2 PUSH2 0x328 DUP4 PUSH2 0x4C0 JUMP JUMPDEST SWAP2 SWAP1 POP SSTORE POP POP JUMP JUMPDEST PUSH1 0x0 PUSH1 0x20 DUP3 DUP5 SUB SLT ISZERO PUSH2 0x342 JUMPI PUSH1 0x0 DUP1 REVERT JUMPDEST POP CALLDATALOAD SWAP2 SWAP1 POP JUMP JUMPDEST PUSH1 0x0 DUP2 MLOAD DUP1 DUP5 MSTORE PUSH1 0x0 JUMPDEST DUP2 DUP2 LT ISZERO PUSH2 0x36F JUMPI PUSH1 0x20 DUP2 DUP6 ADD DUP2 ADD MLOAD DUP7 DUP4 ADD DUP3 ADD MSTORE ADD PUSH2 0x353 JUMP JUMPDEST DUP2 DUP2 GT ISZERO PUSH2 0x381 JUMPI PUSH1 0x0 PUSH1 0x20 DUP4 DUP8 ADD ADD MSTORE JUMPDEST POP PUSH1 0x1F ADD PUSH1 0x1F NOT AND SWAP3 SWAP1 SWAP3 ADD PUSH1 0x20 ADD SWAP3 SWAP2 POP POP JUMP JUMPDEST DUP5 DUP2 MSTORE PUSH1 0x80 PUSH1 0x20 DUP3 ADD MSTORE PUSH1 0x0 PUSH2 0x3AF PUSH1 0x80 DUP4 ADD DUP7 PUSH2 0x349 JUMP JUMPDEST DUP3 DUP2 SUB PUSH1 0x40 DUP5 ADD MSTORE PUSH2 0x3C1 DUP2 DUP7 PUSH2 0x349 JUMP JUMPDEST SWAP2 POP POP DUP3 PUSH1 0x60 DUP4 ADD MSTORE SWAP6 SWAP5 POP POP POP POP POP JUMP JUMPDEST PUSH1 0x20 DUP1 DUP3 MSTORE DUP3 MLOAD DUP3 DUP3 ADD DUP2 SWAP1 MSTORE PUSH1 0x0 SWAP2 SWAP1 DUP5 DUP3 ADD SWAP1 PUSH1 0x40 DUP6 ADD SWAP1 DUP5 JUMPDEST DUP2 DUP2 LT ISZERO PUSH2 0x40B JUMPI DUP4 MLOAD DUP4 MSTORE SWAP3 DUP5 ADD SWAP3 SWAP2 DUP5 ADD SWAP2 PUSH1 0x1 ADD PUSH2 0x3EF JUMP JUMPDEST POP SWAP1 SWAP7 SWAP6 POP POP POP POP POP POP JUMP JUMPDEST PUSH1 0x0 PUSH1 0x20 DUP3 DUP5 SUB SLT ISZERO PUSH2 0x429 JUMPI PUSH1 0x0 DUP1 REVERT JUMPDEST DUP2 CALLDATALOAD PUSH1 0x1 PUSH1 0x1 PUSH1 0xA0 SHL SUB DUP2 AND DUP2 EQ PUSH2 0x440 JUMPI PUSH1 0x0 DUP1 REVERT JUMPDEST SWAP4 SWAP3 POP POP POP JUMP JUMPDEST PUSH1 0x1 DUP2 DUP2 SHR SWAP1 DUP3 AND DUP1 PUSH2 0x45B JUMPI PUSH1 0x7F DUP3 AND SWAP2 POP JUMPDEST PUSH1 0x20 DUP3 LT DUP2 EQ ISZERO PUSH2 0x2B5 JUMPI PUSH4 0x4E487B71 PUSH1 0xE0 SHL PUSH1 0x0 MSTORE PUSH1 0x22 PUSH1 0x4 MSTORE PUSH1 0x24 PUSH1 0x0 REVERT JUMPDEST PUSH4 0x4E487B71 PUSH1 0xE0 SHL PUSH1 0x0 MSTORE PUSH1 0x11 PUSH1 0x4 MSTORE PUSH1 0x24 PUSH1 0x0 REVERT JUMPDEST PUSH1 0x0 DUP3 NOT DUP3 GT ISZERO PUSH2 0x4A5 JUMPI PUSH2 0x4A5 PUSH2 0x47C JUMP JUMPDEST POP ADD SWAP1 JUMP JUMPDEST PUSH4 0x4E487B71 PUSH1 0xE0 SHL PUSH1 0x0 MSTORE PUSH1 0x32 PUSH1 0x4 MSTORE PUSH1 0x24 PUSH1 0x0 REVERT JUMPDEST PUSH1 0x0 PUSH1 0x0 NOT DUP3 EQ ISZERO PUSH2 0x4D4 JUMPI PUSH2 0x4D4 PUSH2 0x47C JUMP JUMPDEST POP PUSH1 0x1 ADD SWAP1 JUMP INVALID LOG2 PUSH5 0x6970667358 0x22 SLT KECCAK256 0xB5 MSTORE8 LOG1 LOG2 DUP4 0xBD SHR SWAP6 0x49 0xBF AND 0xE4 DUP16 PUSH6 0xC367003C98F2 PUSH27 0x1C579E9BE756001B08AD0464736F6C634300080B00330000000000 ","sha1":"cdf0e6563112ebd455d03f65fc51c27d5a4a80a9","source":"// SPDX-License-Identifier: MIT\npragma solidity ^0.8.0;\n\ncontract Election {\n    //Candidate Structure\n    struct Candidate {\n        uint256 id;\n        string name;\n        string party;\n        uint256 vote_count;\n    }\n    //count voters\n    mapping(address => bool) public voters;\n    //Store candidates\n    mapping(uint256 => Candidate) public Candidates;\n    //count candidates\n    uint256 public Candidate_count;\n    \n\n    constructor()  {\n        addCandidate(\"Devadas Aggarwal\", \"Bharatiya Janata Party\");\n        addCandidate(\"Pallav Pandit\", \"Indian National Congress\");\n        addCandidate(\"Harish Khurana\", \"Nationalist Congress Party\");\n        addCandidate(\"Sarita Dhaliwal\", \"Rashtriya Janata Dal\");\n        addCandidate(\"Jai Goyal\", \"Bahujan Samaj Party\");\n        addCandidate(\"NOTA\", \"None Of The Above\");\n    }\n\n    function addCandidate(string memory _name, string memory _party) private {\n        Candidate_count++;\n        Candidates[Candidate_count] = Candidate(\n            Candidate_count,\n            _name,\n            _party,\n            0\n        );\n    }\n\n    function Vote(uint256 _candidateId) public {\n        //require that voter hasn't voted before\n        require(!voters[msg.sender]);\n        //require valid candidate\n        require(_candidateId > 0 && _candidateId <= Candidate_count);\n        //record vote from voter\n        voters[msg.sender] = true;\n        //update candidate vote count\n        Candidates[_candidateId].vote_count++;\n    }\n    \n    //for frontend\n    function viewvotes() public view returns (uint256[] memory) {\n        uint256[] memory ret = new uint256[](6) ;\n        for (uint i = 0; i <= 5; i++) {\n        ret[i] = Candidates[i+1].vote_count;\n     } \n        return ret;\n    }\n    \n}\n","sourcePath":"contracts/Election.sol","type":"contract","deployment":{"address":"0x0720562FD30b854E3ABe908e7cdC1A62557e896E","chainid":"4","blockHeight":10327669}}