{"abi":[{"inputs":[],"stateMutability":"nonpayable","type":"constructor","name":"constructor"},{"inputs":[],"name":"Candidate_count","outputs":[{"internalType":"uint256","name":"","type":"uint256"}],"stateMutability":"view","type":"function"},{"inputs":[{"internalType":"uint256","name":"","type":"uint256"}],"name":"Candidates","outputs":[{"internalType":"uint256","name":"id","type":"uint256"},{"internalType":"string","name":"name","type":"string"},{"internalType":"string","name":"party","type":"string"},{"internalType":"uint256","name":"vote_count","type":"uint256"}],"stateMutability":"view","type":"function"},{"inputs":[{"internalType":"uint256","name":"_candidateId","type":"uint256"}],"name":"Vote","outputs":[],"stateMutability":"nonpayable","type":"function"},{"inputs":[],"name":"viewvotes","outputs":[{"internalType":"uint256[]","name":"","type":"uint256[]"}],"stateMutability":"view","type":"function"},{"inputs":[{"internalType":"uint256","name":"","type":"uint256"}],"name":"voteradd","outputs":[{"internalType":"address","name":"","type":"address"}],"stateMutability":"view","type":"function"},{"inputs":[{"internalType":"address","name":"","type":"address"}],"name":"voters","outputs":[{"internalType":"bool","name":"","type":"bool"}],"stateMutability":"view","type":"function"}],"bytecode":"608060405234801561001057600080fd5b5061007e6040518060400160405280601081526020016f11195d9859185cc81059d9d85c9dd85b60821b8152506040518060400160405280601681526020017f426861726174697961204a616e6174612050617274790000000000000000000081525061027f60201b60201c565b6100e86040518060400160405280600d81526020016c14185b1b185d8814185b991a5d609a1b8152506040518060400160405280601881526020017f496e6469616e204e6174696f6e616c20436f6e6772657373000000000000000081525061027f60201b60201c565b6101536040518060400160405280600e81526020016d486172697368204b687572616e6160901b8152506040518060400160405280601a81526020017f4e6174696f6e616c69737420436f6e677265737320506172747900000000000081525061027f60201b60201c565b6101bf6040518060400160405280600f81526020016e14d85c9a5d1848111a185b1a5dd85b608a1b8152506040518060400160405280601481526020017f526173687472697961204a616e6174612044616c00000000000000000000000081525061027f60201b60201c565b6102256040518060400160405280600981526020016812985a4811dbde585b60ba1b8152506040518060400160405280601381526020017f426168756a616e2053616d616a2050617274790000000000000000000000000081525061027f60201b60201c565b61027a604051806040016040528060048152602001634e4f544160e01b815250604051806040016040528060118152602001704e6f6e65204f66205468652041626f766560781b81525061027f60201b60201c565b61040f565b6002805490600061028f836103ab565b90915550506040805160808101825260025480825260208083018681528385018690526000606085018190529283526001808352949092208351815591518051939492936102e4938501929190910190610312565b5060408201518051610300916002840191602090910190610312565b50606082015181600301559050505050565b82805461031e906103d4565b90600052602060002090601f0160209004810192826103405760008555610386565b82601f1061035957805160ff1916838001178555610386565b82800160010185558215610386579182015b8281111561038657825182559160200191906001019061036b565b50610392929150610396565b5090565b5b808211156103925760008155600101610397565b60006000198214156103cd57634e487b7160e01b600052601160045260246000fd5b5060010190565b600181811c908216806103e857607f821691505b6020821081141561040957634e487b7160e01b600052602260045260246000fd5b50919050565b6105ae8061041e6000396000f3fe608060405234801561001057600080fd5b50600436106100625760003560e01c8063290e9212146100675780634c7265541461009357806391b94a7e146100aa578063a3ec138d146100bf578063d3c3ae08146100f2578063dcd6a5cd1461011d575b600080fd5b61007a6100753660046103cd565b610132565b60405161008a9493929190610433565b60405180910390f35b61009c60025481565b60405190815260200161008a565b6100b261026a565b60405161008a9190610470565b6100e26100cd3660046104b4565b60006020819052908152604090205460ff1681565b604051901515815260200161008a565b6101056101003660046103cd565b6102f1565b6040516001600160a01b03909116815260200161008a565b61013061012b3660046103cd565b61031b565b005b600160208190526000918252604090912080549181018054610153906104e4565b80601f016020809104026020016040519081016040528092919081815260200182805461017f906104e4565b80156101cc5780601f106101a1576101008083540402835291602001916101cc565b820191906000526020600020905b8154815290600101906020018083116101af57829003601f168201915b5050505050908060020180546101e1906104e4565b80601f016020809104026020016040519081016040528092919081815260200182805461020d906104e4565b801561025a5780601f1061022f5761010080835404028352916020019161025a565b820191906000526020600020905b81548152906001019060200180831161023d57829003601f168201915b5050505050908060030154905084565b60408051600680825260e08201909252606091600091906020820160c08036833701905050905060005b600581116102eb57600160006102aa838361052f565b8152602001908152602001600020600301548282815181106102ce576102ce610547565b6020908102919091010152806102e38161055d565b915050610294565b50919050565b6003818154811061030157600080fd5b6000918252602090912001546001600160a01b0316905081565b3360009081526020819052604090205460ff161561033857600080fd5b60008111801561034a57506002548111155b61035357600080fd5b33600081815260208181526040808320805460ff191660019081179091556003805480830182557fc2575a0e9e593c00f959f8c92f12db2869c3395a3b0502d05e2516446f71f85b0180546001600160a01b03191690961790955585845290915281209091018054916103c58361055d565b919050555050565b6000602082840312156103df57600080fd5b5035919050565b6000815180845260005b8181101561040c576020818501810151868301820152016103f0565b8181111561041e576000602083870101525b50601f01601f19169290920160200192915050565b84815260806020820152600061044c60808301866103e6565b828103604084015261045e81866103e6565b91505082606083015295945050505050565b6020808252825182820181905260009190848201906040850190845b818110156104a85783518352928401929184019160010161048c565b50909695505050505050565b6000602082840312156104c657600080fd5b81356001600160a01b03811681146104dd57600080fd5b9392505050565b600181811c908216806104f857607f821691505b602082108114156102eb57634e487b7160e01b600052602260045260246000fd5b634e487b7160e01b600052601160045260246000fd5b6000821982111561054257610542610519565b500190565b634e487b7160e01b600052603260045260246000fd5b600060001982141561057157610571610519565b506001019056fea26469706673582212203611eec72b47b3bf1d56a8ff9a564e3a8b9c9c3352f7564e562598b86ae227f364736f6c634300080b0033","bytecodeSha1":"6468f8eb01a552995961f35cfc386b8bf71864fe","compiler":{"evm_version":"istanbul","optimizer":{"enabled":true,"runs":200},"version":"0.8.11+commit.d7f03943"},"contractName":"Election","language":"Solidity","natspec":{"kind":"dev","methods":{},"version":1},"opcodes":"PUSH1 0x80 PUSH1 0x40 MSTORE CALLVALUE DUP1 ISZERO PUSH2 0x10 JUMPI PUSH1 0x0 DUP1 REVERT JUMPDEST POP PUSH1 0x4 CALLDATASIZE LT PUSH2 0x62 JUMPI PUSH1 0x0 CALLDATALOAD PUSH1 0xE0 SHR DUP1 PUSH4 0x290E9212 EQ PUSH2 0x67 JUMPI DUP1 PUSH4 0x4C726554 EQ PUSH2 0x93 JUMPI DUP1 PUSH4 0x91B94A7E EQ PUSH2 0xAA JUMPI DUP1 PUSH4 0xA3EC138D EQ PUSH2 0xBF JUMPI DUP1 PUSH4 0xD3C3AE08 EQ PUSH2 0xF2 JUMPI DUP1 PUSH4 0xDCD6A5CD EQ PUSH2 0x11D JUMPI JUMPDEST PUSH1 0x0 DUP1 REVERT JUMPDEST PUSH2 0x7A PUSH2 0x75 CALLDATASIZE PUSH1 0x4 PUSH2 0x3CD JUMP JUMPDEST PUSH2 0x132 JUMP JUMPDEST PUSH1 0x40 MLOAD PUSH2 0x8A SWAP5 SWAP4 SWAP3 SWAP2 SWAP1 PUSH2 0x433 JUMP JUMPDEST PUSH1 0x40 MLOAD DUP1 SWAP2 SUB SWAP1 RETURN JUMPDEST PUSH2 0x9C PUSH1 0x2 SLOAD DUP2 JUMP JUMPDEST PUSH1 0x40 MLOAD SWAP1 DUP2 MSTORE PUSH1 0x20 ADD PUSH2 0x8A JUMP JUMPDEST PUSH2 0xB2 PUSH2 0x26A JUMP JUMPDEST PUSH1 0x40 MLOAD PUSH2 0x8A SWAP2 SWAP1 PUSH2 0x470 JUMP JUMPDEST PUSH2 0xE2 PUSH2 0xCD CALLDATASIZE PUSH1 0x4 PUSH2 0x4B4 JUMP JUMPDEST PUSH1 0x0 PUSH1 0x20 DUP2 SWAP1 MSTORE SWAP1 DUP2 MSTORE PUSH1 0x40 SWAP1 KECCAK256 SLOAD PUSH1 0xFF AND DUP2 JUMP JUMPDEST PUSH1 0x40 MLOAD SWAP1 ISZERO ISZERO DUP2 MSTORE PUSH1 0x20 ADD PUSH2 0x8A JUMP JUMPDEST PUSH2 0x105 PUSH2 0x100 CALLDATASIZE PUSH1 0x4 PUSH2 0x3CD JUMP JUMPDEST PUSH2 0x2F1 JUMP JUMPDEST PUSH1 0x40 MLOAD PUSH1 0x1 PUSH1 0x1 PUSH1 0xA0 SHL SUB SWAP1 SWAP2 AND DUP2 MSTORE PUSH1 0x20 ADD PUSH2 0x8A JUMP JUMPDEST PUSH2 0x130 PUSH2 0x12B CALLDATASIZE PUSH1 0x4 PUSH2 0x3CD JUMP JUMPDEST PUSH2 0x31B JUMP JUMPDEST STOP JUMPDEST PUSH1 0x1 PUSH1 0x20 DUP2 SWAP1 MSTORE PUSH1 0x0 SWAP2 DUP3 MSTORE PUSH1 0x40 SWAP1 SWAP2 KECCAK256 DUP1 SLOAD SWAP2 DUP2 ADD DUP1 SLOAD PUSH2 0x153 SWAP1 PUSH2 0x4E4 JUMP JUMPDEST DUP1 PUSH1 0x1F ADD PUSH1 0x20 DUP1 SWAP2 DIV MUL PUSH1 0x20 ADD PUSH1 0x40 MLOAD SWAP1 DUP2 ADD PUSH1 0x40 MSTORE DUP1 SWAP3 SWAP2 SWAP1 DUP2 DUP2 MSTORE PUSH1 0x20 ADD DUP3 DUP1 SLOAD PUSH2 0x17F SWAP1 PUSH2 0x4E4 JUMP JUMPDEST DUP1 ISZERO PUSH2 0x1CC JUMPI DUP1 PUSH1 0x1F LT PUSH2 0x1A1 JUMPI PUSH2 0x100 DUP1 DUP4 SLOAD DIV MUL DUP4 MSTORE SWAP2 PUSH1 0x20 ADD SWAP2 PUSH2 0x1CC JUMP JUMPDEST DUP3 ADD SWAP2 SWAP1 PUSH1 0x0 MSTORE PUSH1 0x20 PUSH1 0x0 KECCAK256 SWAP1 JUMPDEST DUP2 SLOAD DUP2 MSTORE SWAP1 PUSH1 0x1 ADD SWAP1 PUSH1 0x20 ADD DUP1 DUP4 GT PUSH2 0x1AF JUMPI DUP3 SWAP1 SUB PUSH1 0x1F AND DUP3 ADD SWAP2 JUMPDEST POP POP POP POP POP SWAP1 DUP1 PUSH1 0x2 ADD DUP1 SLOAD PUSH2 0x1E1 SWAP1 PUSH2 0x4E4 JUMP JUMPDEST DUP1 PUSH1 0x1F ADD PUSH1 0x20 DUP1 SWAP2 DIV MUL PUSH1 0x20 ADD PUSH1 0x40 MLOAD SWAP1 DUP2 ADD PUSH1 0x40 MSTORE DUP1 SWAP3 SWAP2 SWAP1 DUP2 DUP2 MSTORE PUSH1 0x20 ADD DUP3 DUP1 SLOAD PUSH2 0x20D SWAP1 PUSH2 0x4E4 JUMP JUMPDEST DUP1 ISZERO PUSH2 0x25A JUMPI DUP1 PUSH1 0x1F LT PUSH2 0x22F JUMPI PUSH2 0x100 DUP1 DUP4 SLOAD DIV MUL DUP4 MSTORE SWAP2 PUSH1 0x20 ADD SWAP2 PUSH2 0x25A JUMP JUMPDEST DUP3 ADD SWAP2 SWAP1 PUSH1 0x0 MSTORE PUSH1 0x20 PUSH1 0x0 KECCAK256 SWAP1 JUMPDEST DUP2 SLOAD DUP2 MSTORE SWAP1 PUSH1 0x1 ADD SWAP1 PUSH1 0x20 ADD DUP1 DUP4 GT PUSH2 0x23D JUMPI DUP3 SWAP1 SUB PUSH1 0x1F AND DUP3 ADD SWAP2 JUMPDEST POP POP POP POP POP SWAP1 DUP1 PUSH1 0x3 ADD SLOAD SWAP1 POP DUP5 JUMP JUMPDEST PUSH1 0x40 DUP1 MLOAD PUSH1 0x6 DUP1 DUP3 MSTORE PUSH1 0xE0 DUP3 ADD SWAP1 SWAP3 MSTORE PUSH1 0x60 SWAP2 PUSH1 0x0 SWAP2 SWAP1 PUSH1 0x20 DUP3 ADD PUSH1 0xC0 DUP1 CALLDATASIZE DUP4 CALLDATACOPY ADD SWAP1 POP POP SWAP1 POP PUSH1 0x0 JUMPDEST PUSH1 0x5 DUP2 GT PUSH2 0x2EB JUMPI PUSH1 0x1 PUSH1 0x0 PUSH2 0x2AA DUP4 DUP4 PUSH2 0x52F JUMP JUMPDEST DUP2 MSTORE PUSH1 0x20 ADD SWAP1 DUP2 MSTORE PUSH1 0x20 ADD PUSH1 0x0 KECCAK256 PUSH1 0x3 ADD SLOAD DUP3 DUP3 DUP2 MLOAD DUP2 LT PUSH2 0x2CE JUMPI PUSH2 0x2CE PUSH2 0x547 JUMP JUMPDEST PUSH1 0x20 SWAP1 DUP2 MUL SWAP2 SWAP1 SWAP2 ADD ADD MSTORE DUP1 PUSH2 0x2E3 DUP2 PUSH2 0x55D JUMP JUMPDEST SWAP2 POP POP PUSH2 0x294 JUMP JUMPDEST POP SWAP2 SWAP1 POP JUMP JUMPDEST PUSH1 0x3 DUP2 DUP2 SLOAD DUP2 LT PUSH2 0x301 JUMPI PUSH1 0x0 DUP1 REVERT JUMPDEST PUSH1 0x0 SWAP2 DUP3 MSTORE PUSH1 0x20 SWAP1 SWAP2 KECCAK256 ADD SLOAD PUSH1 0x1 PUSH1 0x1 PUSH1 0xA0 SHL SUB AND SWAP1 POP DUP2 JUMP JUMPDEST CALLER PUSH1 0x0 SWAP1 DUP2 MSTORE PUSH1 0x20 DUP2 SWAP1 MSTORE PUSH1 0x40 SWAP1 KECCAK256 SLOAD PUSH1 0xFF AND ISZERO PUSH2 0x338 JUMPI PUSH1 0x0 DUP1 REVERT JUMPDEST PUSH1 0x0 DUP2 GT DUP1 ISZERO PUSH2 0x34A JUMPI POP PUSH1 0x2 SLOAD DUP2 GT ISZERO JUMPDEST PUSH2 0x353 JUMPI PUSH1 0x0 DUP1 REVERT JUMPDEST CALLER PUSH1 0x0 DUP2 DUP2 MSTORE PUSH1 0x20 DUP2 DUP2 MSTORE PUSH1 0x40 DUP1 DUP4 KECCAK256 DUP1 SLOAD PUSH1 0xFF NOT AND PUSH1 0x1 SWAP1 DUP2 OR SWAP1 SWAP2 SSTORE PUSH1 0x3 DUP1 SLOAD DUP1 DUP4 ADD DUP3 SSTORE PUSH32 0xC2575A0E9E593C00F959F8C92F12DB2869C3395A3B0502D05E2516446F71F85B ADD DUP1 SLOAD PUSH1 0x1 PUSH1 0x1 PUSH1 0xA0 SHL SUB NOT AND SWAP1 SWAP7 OR SWAP1 SWAP6 SSTORE DUP6 DUP5 MSTORE SWAP1 SWAP2 MSTORE DUP2 KECCAK256 SWAP1 SWAP2 ADD DUP1 SLOAD SWAP2 PUSH2 0x3C5 DUP4 PUSH2 0x55D JUMP JUMPDEST SWAP2 SWAP1 POP SSTORE POP POP JUMP JUMPDEST PUSH1 0x0 PUSH1 0x20 DUP3 DUP5 SUB SLT ISZERO PUSH2 0x3DF JUMPI PUSH1 0x0 DUP1 REVERT JUMPDEST POP CALLDATALOAD SWAP2 SWAP1 POP JUMP JUMPDEST PUSH1 0x0 DUP2 MLOAD DUP1 DUP5 MSTORE PUSH1 0x0 JUMPDEST DUP2 DUP2 LT ISZERO PUSH2 0x40C JUMPI PUSH1 0x20 DUP2 DUP6 ADD DUP2 ADD MLOAD DUP7 DUP4 ADD DUP3 ADD MSTORE ADD PUSH2 0x3F0 JUMP JUMPDEST DUP2 DUP2 GT ISZERO PUSH2 0x41E JUMPI PUSH1 0x0 PUSH1 0x20 DUP4 DUP8 ADD ADD MSTORE JUMPDEST POP PUSH1 0x1F ADD PUSH1 0x1F NOT AND SWAP3 SWAP1 SWAP3 ADD PUSH1 0x20 ADD SWAP3 SWAP2 POP POP JUMP JUMPDEST DUP5 DUP2 MSTORE PUSH1 0x80 PUSH1 0x20 DUP3 ADD MSTORE PUSH1 0x0 PUSH2 0x44C PUSH1 0x80 DUP4 ADD DUP7 PUSH2 0x3E6 JUMP JUMPDEST DUP3 DUP2 SUB PUSH1 0x40 DUP5 ADD MSTORE PUSH2 0x45E DUP2 DUP7 PUSH2 0x3E6 JUMP JUMPDEST SWAP2 POP POP DUP3 PUSH1 0x60 DUP4 ADD MSTORE SWAP6 SWAP5 POP POP POP POP POP JUMP JUMPDEST PUSH1 0x20 DUP1 DUP3 MSTORE DUP3 MLOAD DUP3 DUP3 ADD DUP2 SWAP1 MSTORE PUSH1 0x0 SWAP2 SWAP1 DUP5 DUP3 ADD SWAP1 PUSH1 0x40 DUP6 ADD SWAP1 DUP5 JUMPDEST DUP2 DUP2 LT ISZERO PUSH2 0x4A8 JUMPI DUP4 MLOAD DUP4 MSTORE SWAP3 DUP5 ADD SWAP3 SWAP2 DUP5 ADD SWAP2 PUSH1 0x1 ADD PUSH2 0x48C JUMP JUMPDEST POP SWAP1 SWAP7 SWAP6 POP POP POP POP POP POP JUMP JUMPDEST PUSH1 0x0 PUSH1 0x20 DUP3 DUP5 SUB SLT ISZERO PUSH2 0x4C6 JUMPI PUSH1 0x0 DUP1 REVERT JUMPDEST DUP2 CALLDATALOAD PUSH1 0x1 PUSH1 0x1 PUSH1 0xA0 SHL SUB DUP2 AND DUP2 EQ PUSH2 0x4DD JUMPI PUSH1 0x0 DUP1 REVERT JUMPDEST SWAP4 SWAP3 POP POP POP JUMP JUMPDEST PUSH1 0x1 DUP2 DUP2 SHR SWAP1 DUP3 AND DUP1 PUSH2 0x4F8 JUMPI PUSH1 0x7F DUP3 AND SWAP2 POP JUMPDEST PUSH1 0x20 DUP3 LT DUP2 EQ ISZERO PUSH2 0x2EB JUMPI PUSH4 0x4E487B71 PUSH1 0xE0 SHL PUSH1 0x0 MSTORE PUSH1 0x22 PUSH1 0x4 MSTORE PUSH1 0x24 PUSH1 0x0 REVERT JUMPDEST PUSH4 0x4E487B71 PUSH1 0xE0 SHL PUSH1 0x0 MSTORE PUSH1 0x11 PUSH1 0x4 MSTORE PUSH1 0x24 PUSH1 0x0 REVERT JUMPDEST PUSH1 0x0 DUP3 NOT DUP3 GT ISZERO PUSH2 0x542 JUMPI PUSH2 0x542 PUSH2 0x519 JUMP JUMPDEST POP ADD SWAP1 JUMP JUMPDEST PUSH4 0x4E487B71 PUSH1 0xE0 SHL PUSH1 0x0 MSTORE PUSH1 0x32 PUSH1 0x4 MSTORE PUSH1 0x24 PUSH1 0x0 REVERT JUMPDEST PUSH1 0x0 PUSH1 0x0 NOT DUP3 EQ ISZERO PUSH2 0x571 JUMPI PUSH2 0x571 PUSH2 0x519 JUMP JUMPDEST POP PUSH1 0x1 ADD SWAP1 JUMP INVALID LOG2 PUSH5 0x6970667358 0x22 SLT KECCAK256 CALLDATASIZE GT 0xEE 0xC7 0x2B SELFBALANCE 0xB3 0xBF SAR JUMP 0xA8 SELFDESTRUCT SWAP11 JUMP 0x4E GASPRICE DUP12 SWAP13 SWAP13 CALLER MSTORE 0xF7 JUMP 0x4E JUMP 0x25 SWAP9 0xB8 PUSH11 0xE227F364736F6C63430008 SIGNEXTEND STOP CALLER ","sha1":"b194ef0f13a0184678fe6d4069fa982f992a5cc8","source":"// SPDX-License-Identifier: MIT\npragma solidity ^0.8.0;\n\ncontract Election {\n    //Candidate Structure\n    struct Candidate {\n        uint256 id;\n        string name;\n        string party;\n        uint256 vote_count;\n    }\n    //count voters\n    mapping(address => bool) public voters;\n    //Store candidates\n    mapping(uint256 => Candidate) public Candidates;\n    //count candidates\n    uint256 public Candidate_count;\n    //for frontend\n    address[] public voteradd;\n\n    constructor()  {\n        addCandidate(\"Devadas Aggarwal\", \"Bharatiya Janata Party\");\n        addCandidate(\"Pallav Pandit\", \"Indian National Congress\");\n        addCandidate(\"Harish Khurana\", \"Nationalist Congress Party\");\n        addCandidate(\"Sarita Dhaliwal\", \"Rashtriya Janata Dal\");\n        addCandidate(\"Jai Goyal\", \"Bahujan Samaj Party\");\n        addCandidate(\"NOTA\", \"None Of The Above\");\n    }\n\n    function addCandidate(string memory _name, string memory _party) private {\n        Candidate_count++;\n        Candidates[Candidate_count] = Candidate(\n            Candidate_count,\n            _name,\n            _party,\n            0\n        );\n    }\n\n    function Vote(uint256 _candidateId) public {\n        //require that voter hasn't voted before\n        require(!voters[msg.sender]);\n        //require valid candidate\n        require(_candidateId > 0 && _candidateId <= Candidate_count);\n        //record vote from voter\n        voters[msg.sender] = true;\n        voteradd.push(msg.sender);\n        //update candidate vote count\n        Candidates[_candidateId].vote_count++;\n    }\n    \n    //for frontend\n    function viewvotes() public view returns (uint256[] memory) {\n        uint256[] memory ret = new uint256[](6) ;\n        for (uint i = 0; i <= 5; i++) {\n        ret[i] = Candidates[i+1].vote_count;\n     } \n        return ret;\n    }\n    \n}\n","sourcePath":"contracts/Election.sol","type":"contract","deployment":{"address":"0x49C963Ea484A1856566D1B0f6889a8eC32f7eD52","chainid":"4","blockHeight":10140234}}