{"abi":[{"inputs":[],"stateMutability":"nonpayable","type":"constructor","name":"constructor"},{"inputs":[],"name":"Candidate_count","outputs":[{"internalType":"uint256","name":"","type":"uint256"}],"stateMutability":"view","type":"function"},{"inputs":[{"internalType":"uint256","name":"","type":"uint256"}],"name":"Candidates","outputs":[{"internalType":"uint256","name":"id","type":"uint256"},{"internalType":"string","name":"name","type":"string"},{"internalType":"string","name":"party","type":"string"},{"internalType":"uint256","name":"vote_count","type":"uint256"}],"stateMutability":"view","type":"function"},{"inputs":[{"internalType":"uint256","name":"_candidateId","type":"uint256"}],"name":"Vote","outputs":[],"stateMutability":"nonpayable","type":"function"},{"inputs":[],"name":"viewvoters","outputs":[{"internalType":"uint256","name":"","type":"uint256"}],"stateMutability":"view","type":"function"},{"inputs":[{"internalType":"address","name":"","type":"address"}],"name":"voters","outputs":[{"internalType":"bool","name":"","type":"bool"}],"stateMutability":"view","type":"function"}],"bytecode":"608060405234801561001057600080fd5b5061007e6040518060400160405280601081526020016f11195d9859185cc81059d9d85c9dd85b60821b8152506040518060400160405280601681526020017f426861726174697961204a616e6174612050617274790000000000000000000081525061027f60201b60201c565b6100e86040518060400160405280600d81526020016c14185b1b185d8814185b991a5d609a1b8152506040518060400160405280601881526020017f496e6469616e204e6174696f6e616c20436f6e6772657373000000000000000081525061027f60201b60201c565b6101536040518060400160405280600e81526020016d486172697368204b687572616e6160901b8152506040518060400160405280601a81526020017f4e6174696f6e616c69737420436f6e677265737320506172747900000000000081525061027f60201b60201c565b6101bf6040518060400160405280600f81526020016e14d85c9a5d1848111a185b1a5dd85b608a1b8152506040518060400160405280601481526020017f526173687472697961204a616e6174612044616c00000000000000000000000081525061027f60201b60201c565b6102256040518060400160405280600981526020016812985a4811dbde585b60ba1b8152506040518060400160405280601381526020017f426168756a616e2053616d616a2050617274790000000000000000000000000081525061027f60201b60201c565b61027a604051806040016040528060048152602001634e4f544160e01b815250604051806040016040528060118152602001704e6f6e65204f66205468652041626f766560781b81525061027f60201b60201c565b61040f565b6002805490600061028f836103ab565b90915550506040805160808101825260025480825260208083018681528385018690526000606085018190529283526001808352949092208351815591518051939492936102e4938501929190910190610312565b5060408201518051610300916002840191602090910190610312565b50606082015181600301559050505050565b82805461031e906103d4565b90600052602060002090601f0160209004810192826103405760008555610386565b82601f1061035957805160ff1916838001178555610386565b82800160010185558215610386579182015b8281111561038657825182559160200191906001019061036b565b50610392929150610396565b5090565b5b808211156103925760008155600101610397565b60006000198214156103cd57634e487b7160e01b600052601160045260246000fd5b5060010190565b600181811c908216806103e857607f821691505b6020821081141561040957634e487b7160e01b600052602260045260246000fd5b50919050565b6104098061041e6000396000f3fe608060405234801561001057600080fd5b50600436106100575760003560e01c8063290e92121461005c5780634c72655414610088578063a3ec138d1461009f578063b97b6ded146100d2578063dcd6a5cd146100da575b600080fd5b61006f61006a36600461029c565b6100ef565b60405161007f9493929190610302565b60405180910390f35b61009160025481565b60405190815260200161007f565b6100c26100ad36600461033f565b60006020819052908152604090205460ff1681565b604051901515815260200161007f565b600254610091565b6100ed6100e836600461029c565b610227565b005b6001602081905260009182526040909120805491810180546101109061036f565b80601f016020809104026020016040519081016040528092919081815260200182805461013c9061036f565b80156101895780601f1061015e57610100808354040283529160200191610189565b820191906000526020600020905b81548152906001019060200180831161016c57829003601f168201915b50505050509080600201805461019e9061036f565b80601f01602080910402602001604051908101604052809291908181526020018280546101ca9061036f565b80156102175780601f106101ec57610100808354040283529160200191610217565b820191906000526020600020905b8154815290600101906020018083116101fa57829003601f168201915b5050505050908060030154905084565b3360009081526020819052604090205460ff161561024457600080fd5b60008111801561025657506002548111155b61025f57600080fd5b33600090815260208181526040808320805460ff191660019081179091558484529091528120600301805491610294836103aa565b919050555050565b6000602082840312156102ae57600080fd5b5035919050565b6000815180845260005b818110156102db576020818501810151868301820152016102bf565b818111156102ed576000602083870101525b50601f01601f19169290920160200192915050565b84815260806020820152600061031b60808301866102b5565b828103604084015261032d81866102b5565b91505082606083015295945050505050565b60006020828403121561035157600080fd5b81356001600160a01b038116811461036857600080fd5b9392505050565b600181811c9082168061038357607f821691505b602082108114156103a457634e487b7160e01b600052602260045260246000fd5b50919050565b60006000198214156103cc57634e487b7160e01b600052601160045260246000fd5b506001019056fea26469706673582212207f5a14fd305dda013e5bb8969eaa191e67a95f4af9b959db53a5b0e95ec01a5764736f6c634300080b0033","bytecodeSha1":"53f6f6ada3200d6400ea7ffe5f9733641698dea9","compiler":{"evm_version":"istanbul","optimizer":{"enabled":true,"runs":200},"version":"0.8.11+commit.d7f03943"},"contractName":"Election","language":"Solidity","natspec":{"kind":"dev","methods":{},"version":1},"opcodes":"PUSH1 0x80 PUSH1 0x40 MSTORE CALLVALUE DUP1 ISZERO PUSH2 0x10 JUMPI PUSH1 0x0 DUP1 REVERT JUMPDEST POP PUSH1 0x4 CALLDATASIZE LT PUSH2 0x57 JUMPI PUSH1 0x0 CALLDATALOAD PUSH1 0xE0 SHR DUP1 PUSH4 0x290E9212 EQ PUSH2 0x5C JUMPI DUP1 PUSH4 0x4C726554 EQ PUSH2 0x88 JUMPI DUP1 PUSH4 0xA3EC138D EQ PUSH2 0x9F JUMPI DUP1 PUSH4 0xB97B6DED EQ PUSH2 0xD2 JUMPI DUP1 PUSH4 0xDCD6A5CD EQ PUSH2 0xDA JUMPI JUMPDEST PUSH1 0x0 DUP1 REVERT JUMPDEST PUSH2 0x6F PUSH2 0x6A CALLDATASIZE PUSH1 0x4 PUSH2 0x29C JUMP JUMPDEST PUSH2 0xEF JUMP JUMPDEST PUSH1 0x40 MLOAD PUSH2 0x7F SWAP5 SWAP4 SWAP3 SWAP2 SWAP1 PUSH2 0x302 JUMP JUMPDEST PUSH1 0x40 MLOAD DUP1 SWAP2 SUB SWAP1 RETURN JUMPDEST PUSH2 0x91 PUSH1 0x2 SLOAD DUP2 JUMP JUMPDEST PUSH1 0x40 MLOAD SWAP1 DUP2 MSTORE PUSH1 0x20 ADD PUSH2 0x7F JUMP JUMPDEST PUSH2 0xC2 PUSH2 0xAD CALLDATASIZE PUSH1 0x4 PUSH2 0x33F JUMP JUMPDEST PUSH1 0x0 PUSH1 0x20 DUP2 SWAP1 MSTORE SWAP1 DUP2 MSTORE PUSH1 0x40 SWAP1 KECCAK256 SLOAD PUSH1 0xFF AND DUP2 JUMP JUMPDEST PUSH1 0x40 MLOAD SWAP1 ISZERO ISZERO DUP2 MSTORE PUSH1 0x20 ADD PUSH2 0x7F JUMP JUMPDEST PUSH1 0x2 SLOAD PUSH2 0x91 JUMP JUMPDEST PUSH2 0xED PUSH2 0xE8 CALLDATASIZE PUSH1 0x4 PUSH2 0x29C JUMP JUMPDEST PUSH2 0x227 JUMP JUMPDEST STOP JUMPDEST PUSH1 0x1 PUSH1 0x20 DUP2 SWAP1 MSTORE PUSH1 0x0 SWAP2 DUP3 MSTORE PUSH1 0x40 SWAP1 SWAP2 KECCAK256 DUP1 SLOAD SWAP2 DUP2 ADD DUP1 SLOAD PUSH2 0x110 SWAP1 PUSH2 0x36F JUMP JUMPDEST DUP1 PUSH1 0x1F ADD PUSH1 0x20 DUP1 SWAP2 DIV MUL PUSH1 0x20 ADD PUSH1 0x40 MLOAD SWAP1 DUP2 ADD PUSH1 0x40 MSTORE DUP1 SWAP3 SWAP2 SWAP1 DUP2 DUP2 MSTORE PUSH1 0x20 ADD DUP3 DUP1 SLOAD PUSH2 0x13C SWAP1 PUSH2 0x36F JUMP JUMPDEST DUP1 ISZERO PUSH2 0x189 JUMPI DUP1 PUSH1 0x1F LT PUSH2 0x15E JUMPI PUSH2 0x100 DUP1 DUP4 SLOAD DIV MUL DUP4 MSTORE SWAP2 PUSH1 0x20 ADD SWAP2 PUSH2 0x189 JUMP JUMPDEST DUP3 ADD SWAP2 SWAP1 PUSH1 0x0 MSTORE PUSH1 0x20 PUSH1 0x0 KECCAK256 SWAP1 JUMPDEST DUP2 SLOAD DUP2 MSTORE SWAP1 PUSH1 0x1 ADD SWAP1 PUSH1 0x20 ADD DUP1 DUP4 GT PUSH2 0x16C JUMPI DUP3 SWAP1 SUB PUSH1 0x1F AND DUP3 ADD SWAP2 JUMPDEST POP POP POP POP POP SWAP1 DUP1 PUSH1 0x2 ADD DUP1 SLOAD PUSH2 0x19E SWAP1 PUSH2 0x36F JUMP JUMPDEST DUP1 PUSH1 0x1F ADD PUSH1 0x20 DUP1 SWAP2 DIV MUL PUSH1 0x20 ADD PUSH1 0x40 MLOAD SWAP1 DUP2 ADD PUSH1 0x40 MSTORE DUP1 SWAP3 SWAP2 SWAP1 DUP2 DUP2 MSTORE PUSH1 0x20 ADD DUP3 DUP1 SLOAD PUSH2 0x1CA SWAP1 PUSH2 0x36F JUMP JUMPDEST DUP1 ISZERO PUSH2 0x217 JUMPI DUP1 PUSH1 0x1F LT PUSH2 0x1EC JUMPI PUSH2 0x100 DUP1 DUP4 SLOAD DIV MUL DUP4 MSTORE SWAP2 PUSH1 0x20 ADD SWAP2 PUSH2 0x217 JUMP JUMPDEST DUP3 ADD SWAP2 SWAP1 PUSH1 0x0 MSTORE PUSH1 0x20 PUSH1 0x0 KECCAK256 SWAP1 JUMPDEST DUP2 SLOAD DUP2 MSTORE SWAP1 PUSH1 0x1 ADD SWAP1 PUSH1 0x20 ADD DUP1 DUP4 GT PUSH2 0x1FA JUMPI DUP3 SWAP1 SUB PUSH1 0x1F AND DUP3 ADD SWAP2 JUMPDEST POP POP POP POP POP SWAP1 DUP1 PUSH1 0x3 ADD SLOAD SWAP1 POP DUP5 JUMP JUMPDEST CALLER PUSH1 0x0 SWAP1 DUP2 MSTORE PUSH1 0x20 DUP2 SWAP1 MSTORE PUSH1 0x40 SWAP1 KECCAK256 SLOAD PUSH1 0xFF AND ISZERO PUSH2 0x244 JUMPI PUSH1 0x0 DUP1 REVERT JUMPDEST PUSH1 0x0 DUP2 GT DUP1 ISZERO PUSH2 0x256 JUMPI POP PUSH1 0x2 SLOAD DUP2 GT ISZERO JUMPDEST PUSH2 0x25F JUMPI PUSH1 0x0 DUP1 REVERT JUMPDEST CALLER PUSH1 0x0 SWAP1 DUP2 MSTORE PUSH1 0x20 DUP2 DUP2 MSTORE PUSH1 0x40 DUP1 DUP4 KECCAK256 DUP1 SLOAD PUSH1 0xFF NOT AND PUSH1 0x1 SWAP1 DUP2 OR SWAP1 SWAP2 SSTORE DUP5 DUP5 MSTORE SWAP1 SWAP2 MSTORE DUP2 KECCAK256 PUSH1 0x3 ADD DUP1 SLOAD SWAP2 PUSH2 0x294 DUP4 PUSH2 0x3AA JUMP JUMPDEST SWAP2 SWAP1 POP SSTORE POP POP JUMP JUMPDEST PUSH1 0x0 PUSH1 0x20 DUP3 DUP5 SUB SLT ISZERO PUSH2 0x2AE JUMPI PUSH1 0x0 DUP1 REVERT JUMPDEST POP CALLDATALOAD SWAP2 SWAP1 POP JUMP JUMPDEST PUSH1 0x0 DUP2 MLOAD DUP1 DUP5 MSTORE PUSH1 0x0 JUMPDEST DUP2 DUP2 LT ISZERO PUSH2 0x2DB JUMPI PUSH1 0x20 DUP2 DUP6 ADD DUP2 ADD MLOAD DUP7 DUP4 ADD DUP3 ADD MSTORE ADD PUSH2 0x2BF JUMP JUMPDEST DUP2 DUP2 GT ISZERO PUSH2 0x2ED JUMPI PUSH1 0x0 PUSH1 0x20 DUP4 DUP8 ADD ADD MSTORE JUMPDEST POP PUSH1 0x1F ADD PUSH1 0x1F NOT AND SWAP3 SWAP1 SWAP3 ADD PUSH1 0x20 ADD SWAP3 SWAP2 POP POP JUMP JUMPDEST DUP5 DUP2 MSTORE PUSH1 0x80 PUSH1 0x20 DUP3 ADD MSTORE PUSH1 0x0 PUSH2 0x31B PUSH1 0x80 DUP4 ADD DUP7 PUSH2 0x2B5 JUMP JUMPDEST DUP3 DUP2 SUB PUSH1 0x40 DUP5 ADD MSTORE PUSH2 0x32D DUP2 DUP7 PUSH2 0x2B5 JUMP JUMPDEST SWAP2 POP POP DUP3 PUSH1 0x60 DUP4 ADD MSTORE SWAP6 SWAP5 POP POP POP POP POP JUMP JUMPDEST PUSH1 0x0 PUSH1 0x20 DUP3 DUP5 SUB SLT ISZERO PUSH2 0x351 JUMPI PUSH1 0x0 DUP1 REVERT JUMPDEST DUP2 CALLDATALOAD PUSH1 0x1 PUSH1 0x1 PUSH1 0xA0 SHL SUB DUP2 AND DUP2 EQ PUSH2 0x368 JUMPI PUSH1 0x0 DUP1 REVERT JUMPDEST SWAP4 SWAP3 POP POP POP JUMP JUMPDEST PUSH1 0x1 DUP2 DUP2 SHR SWAP1 DUP3 AND DUP1 PUSH2 0x383 JUMPI PUSH1 0x7F DUP3 AND SWAP2 POP JUMPDEST PUSH1 0x20 DUP3 LT DUP2 EQ ISZERO PUSH2 0x3A4 JUMPI PUSH4 0x4E487B71 PUSH1 0xE0 SHL PUSH1 0x0 MSTORE PUSH1 0x22 PUSH1 0x4 MSTORE PUSH1 0x24 PUSH1 0x0 REVERT JUMPDEST POP SWAP2 SWAP1 POP JUMP JUMPDEST PUSH1 0x0 PUSH1 0x0 NOT DUP3 EQ ISZERO PUSH2 0x3CC JUMPI PUSH4 0x4E487B71 PUSH1 0xE0 SHL PUSH1 0x0 MSTORE PUSH1 0x11 PUSH1 0x4 MSTORE PUSH1 0x24 PUSH1 0x0 REVERT JUMPDEST POP PUSH1 0x1 ADD SWAP1 JUMP INVALID LOG2 PUSH5 0x6970667358 0x22 SLT KECCAK256 PUSH32 0x5A14FD305DDA013E5BB8969EAA191E67A95F4AF9B959DB53A5B0E95EC01A5764 PUSH20 0x6F6C634300080B00330000000000000000000000 ","sha1":"7a047dce12e52337e03455b5e1df96a336929b0d","source":"// SPDX-License-Identifier: MIT\npragma solidity ^0.8.0;\ncontract Election{\n    //Candidate Structure\n  struct Candidate{\n      uint256 id;\n      string name;\n      string party;\n      uint256 vote_count;\n  }\n  //count voters\n  mapping(address=>bool) public voters;\n  //Store candidates\n  mapping(uint256=>Candidate) public Candidates;\n  //count candidates\n  uint256 public Candidate_count;\n  constructor(){\n      addCandidate(\"Devadas Aggarwal\",\"Bharatiya Janata Party\");\n      addCandidate(\"Pallav Pandit\",\"Indian National Congress\");\n      addCandidate(\"Harish Khurana\",\"Nationalist Congress Party\");\n      addCandidate(\"Sarita Dhaliwal\",\"Rashtriya Janata Dal\");\n      addCandidate(\"Jai Goyal\",\"Bahujan Samaj Party\");\n      addCandidate(\"NOTA\",\"None Of The Above\");\n  }\n  function addCandidate(string memory _name,string memory _party) private {\n      Candidate_count++;\n      Candidates[Candidate_count]=Candidate(Candidate_count,_name,_party,0);\n  }\n  function Vote(uint256 _candidateId) public{\n      //require that voter hasn't voted before\n      require(!voters[msg.sender]);\n      //require valid candidate\n      require(_candidateId >0 && _candidateId<=Candidate_count);\n      //record vote from voter\n      voters[msg.sender]=true;\n      //update candidate vote count\n      Candidates[_candidateId].vote_count++;\n  }\n  function viewvoters() public view returns (uint256){\n\n     return Candidate_count;\n\n  }\n\n}","sourcePath":"contracts/Election.sol","type":"contract","deployment":{"address":"0xf3719cb483A3c8010c82fdcb7ae4A95EDee9f00B","chainid":"4","blockHeight":10123367}}